:1031DE0041463A32380041373A30303031390048C2
:1031EE00617665206E6F20464443323231342100C1
:1031FE00506C6561736520636F6E6E6563740069F4
:10320E007420636F72726563746C79210041373A72
:10321E0030303031340041373A30303032300041C6
:10322E00373A30303031370041373A30303031387C
:10323E000041373A30303031350020202020202018
:10324E0020202020202020202020003F0041373A3F
:10325E00303030313300202020000000000000000C
:0A326E000000000000000000000056
:101B21009005FB7406F078FC7C057D017BFF7A3221
:101B310079687E007F101218DEE490060CF0A30491
:101B4100F0E4A3F0A3F0A3F0A374FFF0C200C2017C
:101B5100C202C203C204C205C206C207C20A53912D
:101B6100FBE5914404F59212389D7BFF7A3179DED1
:101B710012390E123AAD123AD212330A122EAD12A6
:101B810039DD1223577F7E12360290060EEEF0A346
:101B9100EFF064497003EE645460097BFF7A317998
:101BA100E412390E90060EE064547004A3E0644917
:101BB100603E7BFF7A3179ED750D10E4FDFF123641
:101BC1004E7BFF7A3179FE750D107D02E4FF1236EE
:101BD1004E7BFF7A32790D750D107D04E4FF1236CC
:101BE1004E7F7E12360290060EEEF0A3EFF080B427
:101BF1001239DD7BFF7A32791B12390E021E8E30CB
:101C0100110CC211AF3C122F8D9005FBEFF0900526
:101C1100FBE0FFC394064003021CFBEF1460411478
:101C21006051146071147003021CBD147003021C16
:101C3100E324056003021CF5200802D208200803F2
:101C4100021CF5D390063FE094B890063EE0940B59
:101C51005003021CF5D207C208E4F0A3F0021CF500
:101C6100300003021CF5300305D205021CF5D20039
:101C7100021CF5C2927F327E001237C6D29220003A
:101C81000FD203D2047BFF7A32792412390E8002FB
:101C9100D202D201805E2000047F0180027F009089
:101CA100060DE0D394AA50047E0180027E00EE5F0F
:101CB100600690060DE004F0C20180382000047F28
:101CC1000180027F0090060DE0D3940140047E0163
:101CD10080027E00EE5F600690060DE014F0C20106
:101CE100801230000F7BFF7A32792D12390EC2003B
:101CF100C202C2019005FB7406F0201003021C0011
:101D0100300710C207C2017BFF7A32793612390ED1
:101D1100123B04200503021E1A7BFF7A32793F121F
:101D2100390E7BFF7A327948750D107D02E4FF127E
:101D3100364E7BFF7A327948750D107D04E4FF122F
:101D4100364E7BFF7A327948750D107D06E4FF121D
:101D5100364E7B157D02E4FF1235277B167D027F0F
:101D6100101235277B177D027F201235277B187DC6
:101D7100027F301235277B037D027F401235277B9E
:101D8100197D027F501235277BFF7A327959750D03
:101D9100107D027F6012364E7B157D067F10123555
:101DA100277B1B7D067F401235279005FBE06402EF
:101DB100604930110CC211AF3C122F8D9005FBEF21
:101DC100F09005FBE0B404167B1A7D067F101235F6
:101DD100277B167D067F40123527D20680CC9005E1
:101DE100FBE0B403C57B157D067F101235277B1BF5
:101DF1007D067F40123527C20680AF300609121FCB
:101E0100BBD200C2038002C200C2059005FB74066A
:101E1100F0122DB3C201021C00E4FF1230579005ED
:101E2100FC121AE4E4FFFEFD7C049005FCE0F8A33B
:101E3100E0F9A3E0FAA3E0FBD3121A8D4055C29258
:101E41007BFF7A32795B12390E1239DD7B08E4FDB2
:101E5100FF1235277B09E4FD7F10123527E4FFFED1
:101E6100FD7C049005FCE0F8A3E0F9A3E0FAA3E00F
:101E7100FBD3121A8D4014E4FF122ADF9005FC12E5
:101E81001AE47F017E001237C680D2D292122DB39E
:101E9100021C009005FCE0FCA3E0FDA3E0FEA3E032
:101EA100FF122CB0750D107D067F2212364E2000D8
:101EB1007330042C90060DE0244FF582E43405F5CF
:101EC100837401F0E4FF122ADF90060DE075F0043F
:101ED100A424FCF582E5F034FFF583121AE4C20470
:101EE10090060DE0FF7E00123424750D107D027FF7
:101EF1003012364E7B147D047F7012352730010479
:101F01007F0180027F00EF2412FB7D027F7012357A
:101F1100277BFF7A327964750D107D047F3012368C
:101F21004E021C00300260E4FF122ADF1232789068
:101F31000610EEF0A3EFF01228D912390ED201C229
:101F4100CD7BFF7A327964750D107D047F301236B6
:101F51004E3001047F0180027F00EF2412FB7D04DB
:101F61007F701235277FF47E011237C6900610E08C
:101F7100FEA3E0FF123424750D107D047F3012366C
:101F81004ED2CDC201C202122DB37B147D027F70ED
:101F91001235273001047F0180027F00EF2412FBFC
:101FA1007D047F701235277BFF7A327964750D10BD
:0A1FB1007D027F3012364E021C0044
:10368E0041373A30303032310042373A3031313111
:10369E0031320042373A31303132004095B6C7D11F
:1036AE00EAFF000000000000000000000042373A70
:0F36BE00000000000000000000000000000000FD
:100F6800C109C10AC108C18B41063D0041064300C1
:100F780042063E000043064000000041063A004198
:030F8800063B0025
:0437C6008E088F09D1
:1037CA00E4F50AF50BF50AF50BC3E50B9509E508CF
:1037DA006480F8E50A648098500D123B3C050BE5BD
:0737EA000B70E6050A80E206
:0137F10022B5
:0B3B3C000000007F0B7EBEDEFEDFFC01
:013B4700225B
:103AAD00438E805389F0758ACD758CD4C28DD28C9E
:033ABD00D2A92269
:03000B000236CDED
:0836CD00C0E0C083C082C0D040
:1036D5009005FAE4F0900643E004F0E0C39402405C
:1036E5000743BC08D20AE4F030080E90063FE00418
:0936F500F0700690063EE004F0BE
:0936FE00D0D0D082D083D0E0329C
:1037F20090063DE025E0FFA212E4334FF07006A2EE
:1038020012920B801590063DE0B4FF0EA20B30120F
:0C38120001B35006A212920BD322C32275
:102F8D009036A9E493FDEFD39D5004E4FE8076EFD7
:102F9D00D39D400F9036AAE493FDEFD39D50047E50
:102FAD000180629036AAE493FDEFD39D400DA3E41A
:102FBD0093FDEFD39D50047E02804A9036ABE4938F
:102FCD00FDEFD39D400DA3E493FDEFD39D50047E03
:102FDD000380329036ACE493FDEFD39D400DA3E416
:102FED0093FDEFD39D50047E04801A9036ADE4938B
:102FFD00FDEFD39D400DA3E493FDEFD39D50047ED3
:10300D000580027E06BE0602801290063BE0B506E4
:10301D000B90063AE025E04401F08005E490063A75
:10302D00F090063BEEF090063AE0FFB4FF059006F7
:10303D003CEEF0EF701190063CE0FF64066008AEC8
:09304D00077406F0AF06227F06AD
:013056002257
:082CB0008F0B8E0A8D098C08C0
:102CB80078127C067D017BFF7A3679B07E007F082A
:102CC8001218DEE490061AF07407F090061AE0FF76
:102CD800C3648094804073EFFD3395E0FC74122D3B
:102CE800F58274063CF583E50BF074122DF58274B9
:102CF800063CF583E0C4540FFF74112DF582740669
:102D08003CF583EFF074122DF58274063CF583C010
:102D180083C082E0FF74112DF58274063CF583E0D0
:102D2800C454F0FEC3EF9ED082D083F0AF0BAE0A3E
:102D3800AD09AC087808121A9E8F0B8E0A8D098C83
:102D48000890061AE024FEF08081E490061AF090BC
:102D5800061AE0FFD3648094875044EF3395E0FE71
:102D680074122FF58274063EF583E0D3940950104F
:102D780074122FF58274063EF583E02430F0801734
:102D880090061AE0FF3395E0FE74122FF582740660
:102D98003EF583E02437F090061AE004F080B0E4B2
:0A2DA80090061AF07B017A067912FA
:012DB20022FE
:043424008E088F0976
:1034280078127C067D017BFF7A3679B87E007F03AF
:103438001218DEE4900615F0AE08AF09FC7D6412A0
:10344800195C900612EFF0E075F064A4FFC3E5097B
:103458009FFFE50895F0FE7C007D0A12195CA3EF3A
:10346800F0AE08AF097C007D0A12195CA3EDF0E408
:10347800A3F0900615E0FFD364809483501BEF33CC
:1034880095E0FE74122FF58274063EF583E0243031
:10349800F0900615E004F080D9E4900615F07B0161
:0434A8007A06791215
:0134AC0022FD
:083278008F0B8E0A8D098C08F2
:10328000E4F50CF50D9002A8E0FCA3E0FDA3E0FE40
:10329000A3E0FFAB0BAA0AA909A808C3121A8D5014
:1032A000057E007F0122750D0175F004E50DA42453
:1032B000A4F582E5F03402F583E0FCA3E0FDA3E091
:1032C000FEA3E0FFAB0BAA0AA909A808C3121A8D36
:1032D000402C75F004E50DA424A8F582E5F0340235
:1032E000F583E0FCA3E0FDA3E0FEA3E0FFA808C394
:1032F000121A8D5009E50D2401FFE433FE22050D5D
:09330000E50DB4A9A47E037FE7EA
:0133090022A1
:0428D9008E088F09CD
:1028DD00E4900612F0A3F0A3F078157C067D017B41
:1028ED00FF7A3679BBFE7F121218DE90062774032D
:1028FD00F0750A01750B06750C15750D00750E003A
:10290D00750F00D3E50994A9E508940040077BFFF6
:10291D007A36798E22E5096464450870077BFF7A63
:10292D0036799722E509640A450870077BFF7A36E8
:10293D0079A122AE08AF097C007D6412195C900666
:10294D0012EFF0FBAE08AF097C007D0A12195CEBAB
:10295D0075F00AA4FEC3EF9EA3F0AE08AF097C008C
:10296D007D0A12195CA3EDF0EBD39400405690064E
:10297D0027E0FF04F074152FF582E43406F5837417
:10298D0030F0900612E02430FF900627E0FE04F0B0
:10299D0074152EF582E43406F583EFF0900627E0EA
:1029AD00FF04F074152FF582E43406F5837431F0CD
:1029BD00900627E0FF04F074152FF582E43406F538
:1029CD00837431F0900612E0D39400402CA3E07094
:1029DD0028900627E0FF04F074152FF582E43406E5
:1029ED00F5837431F0900627E0FF04F074152FF590
:1029FD0082E43406F5837433F0900613E0FFD3942C
:102A0D0001402D900627E0FE04F074152EF582E4AA
:102A1D003406F5837430F0EF2430FF900627E0FE86
:102A2D0004F074152EF582E43406F583EFF080077B
:102A3D00900613E0B40128900627E0FF04F074150A
:102A4D002FF582E43406F5837431F0900627E0FF0C
:102A5D0004F074152FF582E43406F5837430F0908C
:102A6D000614E0FFD39400402B900627E0FE04F0FF
:102A7D0074152EF582E43406F5837430F0EF2430AE
:102A8D00FF900627E0FE04F074152EF582E434065F
:102A9D00F583EFF0900627E0FF04F074152FF58213
:102AAD00E43406F5837431F0900627E0FF04F074EA
:102ABD00152FF582E43406F5837432F0900627E085
:102ACD002415F582E43406F583E4F07B017A06796A
:012ADD0015E3
:012ADE0022D5
:100F8B00C10EC10FC10CC10D410644004106450005
:10389D00E5A2543FF5A253BAFE759A507598504360
:1038AD008E01438E0475D7E075D6FE438E1075AF2D
:0638BD0001D2ACD2AF22E3
:0300230002399B04
:10399B00C0E0C083C08230980AC298900644E59973
:1039AB00F0D20C309904C299C20ED082D083D0E0F1
:0139BB0032D9
:030043000238760A
:10387600C0E0C083C082E59A30E00B900645E59B28
:10388600F0D20D539AFEE59A30E105539AFDC20F28
:07389600D082D083D0E032A4
:093B4800200EFDEFD20EF59922CA
:1038E9008B378A388939AB37AA38A9391219046054
:1038F900130539E5397002053814F9121904FF1254
:053909003B4880E222B2
:093B5100200FFDEFD20FF59B22BD
:10390E008B088A09890AAB08AA09A90A1219046048
:10391E0013050AE50A7002050914F9121904FF12BB
:05392E003B5180E22284
:070F9B00C111013C00C1106F
:103AD200759D08E4F5BD75BCEBD2AD7F02FE0237E1
:013AE200C61D
:03002B0002376A2F
:10376A00C0E0C083C082C0D075D01853BCEF85BDFD
:10377A003CD2119036AEE493FFE53CC39F5003C39D
:0E378A008001D39210D0D0D082D083D0E03214
:1026310001152C000120340001286C00012F380005
:1026410001351800013AE4000140100001449000F6
:102651000148E000014CAC00015020000153600032
:102661000156800001594400015BC800015E500021
:1026710001607000016290000164780001666000F1
:102681000167F00001699C00016B3800016C740066
:10269100016DAC00016F2C000170300001715C0014
:1026A10001726400017370000174540001755400DB
:1026B10001763800017704000177B80001789C00A9
:1026C100017941000179F000017A8C00017B54000D
:1026D100017BD800017C7000017D0C00017D84002C
:1026E100017E1800017E9000017F1800017F8400A7
:1026F100017FF80001805C000180CC00018138007D
:102701000181A80001821000018269000182AC00F0
:1027110001830000018370000183C4000184100063
:1027210001846C000184AC0001850C0001854C0022
:10273100018580000185DC000186180001866000AA
:10274100018698000186D800018710000187540096
:1027510001878C000187BC000188040001883000DA
:10276100018870000188A8000188D4000189040053
:102771000189340001896C000189A0000189D4001C
:10278100018A0000018A2400018A4800018A700040
:10279100018AA000018AD000018AF800018B200083
:1027A100018B4400018B6C00018B9500018BB400FF
:1027B100018BD400018C0000018C1400018C4000BD
:1027C100018C6400018C8400018CA000018CBC0090
:1027D100018CDC00018D0000018D1C00018D340095
:1027E100018D5800018D7000018D8C00018DB000AC
:1027F100018DC000018DDC00018DF400018E0CF80B
:10280100018E2000018E3C00018E5400018E780063
:10281100018E9000018EA000018EBC00018ECFD0F0
:10282100018EE400018F0000018F1400018F303010
:10283100018F415C018F5000018F6400018F7C008A
:10284100018F9400018FA800018FC000018FCC007F
:10285100018FE000018FF4480190040001901C00F9
:10286100019038000190440001905C0001906800E3
:10287100019074000190840001909B380190A800A0
:102881000190BC000190C8000190D8180190E400AB
:102891000190F80001910AD40191140001911FCC1B
:1028A1000191306001913D900191480001915800E2
:1028B10001916430019178D00191880001919400D7
:1028C10001919C000191ACC80191C4000191D0001B
:0828D1000191DC000191F4000B
:100FA20060AA0550000000000000000000000000E0
:100FB200000000000000000000000000000000002F
:100FC200000000000000000000000000000000001F
:100FD200000000000000000000000000000000000F
:100FE20000000000000000000000000000000000FF
:100FF20000000000000000000000000000000000EF
:1010020000000000000000000000000000000000DE
:1010120000000000000000000000000000000000CE
:1010220000000000000000000000000000000000BE
:1010320000000000000000000000000000000000AE
:10104200000000000000000000000000000062A894
:1010520002A80000000000000000000000000000E4
:10106200000000000000000000000000000000007E
:10107200000000000000000000000000000000006E
:10108200000000000000000000000000000000005E
:10109200000000000000000000000000000000004E
:1012F2000000000000000000000062A800000000E2
:1013020000000000000000000000000000000000DB
:1013120000000000000000000000000000000000CB
:1013220000000000000000000000000000000000BB
:1013320000000000000000000000000000000000AB
:0615A20000000000000043
:0D3B2F00E4F5C7F5C5F5C675C380F5C422E1
:103A7F0075C78175C5018FC48EC375C65A75C6A526
:063A8F0000AFC2123B2F44
:013A9500220E
:0D39330075F003A42401FFE435F0FEE0FD73
:1039400075C78175C5028FC48EC38DC275C65A7581
:06395000C6A500023B2F9A
:10000E0075C78175C5038FC48EC375C65A75C6A5CF
:04001E0000023B2F72
:10235700E4900612F0A3F0A3F0A3F0A3F0A3121ADF
:10236700F00000000090061B121AF0000000009019
:10237700061F121AF0000000007FFF7E01123A7F4D
:10238700EF640170030224A2E4FF1E12000EE49022
:102397000612F0900612E0FB75F004A42431F582D2
:1023A700E5F03426F583121AC47814121A9E9006A3
:1023B70014EFF0FA75F004EBA42431F582E5F0345C
:1023C70026F583121AC4780C121A9E900615EFF0A0
:1023D700900612E075F004A42431F582E5F0342666
:1023E700F583121AC47804121A9E900616EFF0EBC2
:1023F70075F003A4FFAEF0AD02123940900612E06B
:10240700900615123933900612E075F003A42402E2
:10241700FFE435F0FE900616E0FD123940900612F3
:10242700E004F0E0C394AA500302239A90061274C2
:1024370001F0900612E0FFC394AA505675F004EF1E
:10244700A42431F582E5F03426F583121AD475F009
:1024570004EFA4242DF582E5F03426F583121AC47F
:10246700EF2BFFEE3AFEED39FDEC38FCE47B02FA88
:10247700F9F81219ED900612E075F004A424A4F5FA
:1024870082E5F03402F583121AE4900612E004F0B4
:1024970080A07D017FFF7E01023940E4FFFE123AF2
:1024A7007FE4FCFD90061B121AE47F017E00123ABE
:1024B7007FE4FCFD90061F121AE47F027E00123AA9
:1024C7007FE4FCFD900623121AE490061BE0FCA3B0
:1024D700E0FDA3E0FEA3E0FF7808121AB1A3E0F83D
:1024E700A3E0F9A3E0FAA3E02FFFEA3EFEE93DFDF2
:1024F700E83CFC7808121AB1A3E0F8A3E0F9A3E0DE
:10250700FAA3E02FFFEA3EFEE93DFDE83CFC780434
:10251700121AB1900617121AE49006127401F0907D
:102527000612E0FFC394AA4003022630EF75F003BA
:10253700A4FFAEF0123A7FE4FCFDFE90061B121AD0
:10254700E4900612E075F003A42401FFE435F0FEE1
:10255700123A7FE4FCFDFE90061F121AE490061261
:10256700E075F003A42402FFE435F0FE123A7FE49D
:10257700FCFDFE900623121AE490061BE0FCA3E084
:10258700FDA3E0FEA3E0FF7808121AB1A3E0F8A3C9
:10259700E0F9A3E0FAA3E02FFFEA3EFEE93DFDE8FC
:1025A7003CFC7808121AB1A3E0F8A3E0F9A3E0FA1B
:1025B700A3E02FFFEA3EFEE93DFDE83CFC7804126C
:1025C7001AB190061B121AE490061BE0FCA3E0FD6B
:1025D700A3E0FEA3E0FF900617E0F8A3E0F9A3E06D
:1025E700FAA3E02FFFEA3EFEE93DFDE83CFCE47B71
:1025F70002FAF9F81219ED900612E075F004A42416
:10260700A4F582E5F03402F583121AE490061BE084
:10261700FCA3E0FDA3E0FEA3E0FF900617121AE477
:09262700900612E004F0022526E1
:012630002287
:101FBB00E4900612F0A3F0A3F0A3F0A3F0A3121A7F
:101FCB00F00000000090061B121AF00000000090B9
:101FDB00061F121AF000000000900623121AF000E0
:101FEB00000000900627121AF00000000090062B4C
:101FFB00121AF000000000E4900615F0900612048F
:10200B00F0900612E0FFC394AA40030221E075F0A2
:10201B0004EFA42400F582E5F03400F583E0FCA383
:10202B00E0FDA3E0FEA3E0FFE4FBFAF9F8C3121A0C
:10203B008D70030221D7900612E0900616F09006E1
:10204B0015E004900613F0900616E0FF900613E0DF
:10205B00C39F40030221CF900615E075F004A42422
:10206B0000F582E5F03400F583E0F8A3E0F9A3E096
:10207B00FAA3E0FB900616E075F004A42400F582A9
:10208B00E5F03400F583E0FCA3E0FDA3E0FEA3E064
:10209B00C39BFFEE9AFEED99FDEC98FCE412174FF3
:1020AB00900617121AE4900615E075F004A424317B
:1020BB00F582E5F03426F583121AD4900616E075F6
:1020CB00F004A42431F582E5F03426F583121AC40A
:1020DB00C3EF9BFFEE9AFEED99FDEC98FCE4121713
:1020EB004F90061B121AE4900617E0FCA3E0FDA329
:1020FB00E0FEA3E0FFA3E0F8A3E0F9A3E0FAA3E07E
:10210B00FB1216B2900617121AE4900615E075F042
:10211B0004A42431F582E5F03426F583121AD49009
:10212B000613E075F004A42431F582E5F03426F5AE
:10213B0083121AC4C3EF9BFFEE9AFEED99FDEC9848
:10214B00FCE412174F90061B121AE4900617E0FCE2
:10215B00A3E0FDA3E0FEA3E0FFA3E0F8A3E0F9A357
:10216B00E0FAA3E0FB1215A9900617121AE49006E9
:10217B0017E0FCA3E0FDA3E0FEA3E0FF12178D9098
:10218B000615E075F004A42400F582E5F03400F5A3
:10219B0083E0F8A3E0F9A3E0FAA3E02FFFEA3EFE09
:1021AB00E93DFDE83CFC900613E075F004A4240027
:1021BB00F582E5F03400F583121AE4900613E0047F
:1021CB00F0022052900616E0900615F0900612E0F1
:1021DB0004F002200CE4FFFE12000EE4900612F055
:1021EB00900612E0FB75F004A42400F582E5F034B0
:1021FB0000F583E0FCA3E0FDA3E0FEA3E0FF781471
:10220B00121A9E900614EFF0FA75F004EBA424005A
:10221B00F582E5F03400F583E0FCA3E0FDA3E0FEDE
:10222B00A3E0FF780C121A9E900615EFF0900612A1
:10223B00E075F004A42400F582E5F03400F583E0AA
:10224B00FCA3E0FDA3E0FEA3E0FF7804121A9E902E
:10225B000616EFF0EB75F003A4FFAEF0AD021239EA
:10226B0040900612E0900615123933900612E07575
:10227B00F003A42402FFE435F0FE900616E0FD12F5
:10228B003940900612E004F0E0C394AA50030221F7
:10229B00EB7D017FFF7E011239409006127401F035
:1022AB00900612E0FFC394AA506475F004EFA424C7
:1022BB0000F582E5F03400F583E0F8A3E0F9A3E044
:1022CB00FAA3E0FB75F004EFA424FCF582E5F034EF
:1022DB00FFF583E0FCA3E0FDA3E0FEA3E02BFFEE04
:1022EB003AFEED39FDEC38FCE47B02FAF9F81219F1
:1022FB00ED900612E075F004A424A4F582E5F03409
:10230B0002F583121AE4900612E004F08092E49036
:10231B000612F0900612E0FFC394AA502E74502FB1
:10232B00F582E43405F583E07019900612E075F040
:10233B0004A42400F582E5F03400F583121AF000B2
:0B234B00000000900612E004F080C8C3
:012356002264
:0F3B0400E4FFFE12000E7E0212000E75C7A8220B
:103A4F000000000000000000000000000000000067
:083A5F0000000000000000005F
:103A1900C286D2870000D28600000000000000C2E2
:0B3A29008700000000000000C28622A1
:103A3400C286C2870000D28600000000000000D2C7
:0B3A44008700000000000000C2862286
:103AC000C286C2870000D28600000000000000C24B
:023AD00086224C
:053798007F541239FD11
:10379D00E4FFC286D28700000000D2860000000040
:1037AD0030870A0FEFD3946440F6023A340000C21A
:0837BD0086000000000000D3AB
:0137C50022E1
:10002E00C286D28700000000D286000000000000C9
:04003E0000C2862254
:1039FD007E08C286EF25E0FF928700000000D28688
:0B3A0D0000000000000000DEE9C2869F
:013A1800228B
:10373900E4FF7E08C286D2870000AD061EED602038
:10374900D28600000000EF25E0FFA287E4334FFF97
:10375900C28600000000000000000000000080DABE
:01376900223D
:02360200AD0712
:10360400123A190000000000001237985038AF0534
:103614001239FD12379D4002802C123A197F55123F
:1036240039FD12379D4002801D123739EF750B00AA
:10363400F50A123AC0123739EF420B12002E123A31
:0936440034AE0AAF0B22E4FEFFD4
:01364D00225A
:10370700AC07123A191237985026AF041239FD1236
:10371700379D400122AF051239FD12379D40012226
:10372700AF031239FD12379D400122123A34D322DA
:02373700C322AB
:10330A007F7E123602EF64497003EE6454707B7B51
:10331A00FB7D347F081237077F091237077F0A12AD
:10332A0037077F0B1237077B1BE4FD7F1012370725
:10333A007F111237077F121237077F131237077B65
:10334A00027D207F141237077F151237077F161266
:10335A0037077F17123707E4FB7D787F1E1237077E
:10336A007F1F1237077F201237077F21123707E4A2
:10337A00FD7F191237077B0D7DC27F1B1237077B32
:0D338A00017D147F1A1237078002C322D381
:013397002213
:10305700EF146023146036146049240360030230C0
:10306700F9E4FF123602EE540FFEE4FCFD9006363B
:10307700121AE47F0180407F02123602EE540FFEDF
:10308700E4FCFD900636121AE47F03802A7F0412BF
:103097003602EE540FFEE4FCFD900636121AE47F6A
:1030A7000580147F06123602EE540FFEE4FCFD90F5
:1030B7000636121AE47F07123602E4FCFDC004C08C
:1030C70005C006C007900636E0FCA3E0FDA3E0FEBE
:1030D700A3E0FF7810121AB1D003D002D001D000BC
:1030E700EF4BFFEE4AFEED49FDEC48FC9006361229
:1030F7001AE4900636E0FCA3E0FDA3E0FEA3E0FFA0
:10310700EC540FFC900636121AE4900636E0FCA346
:08311700E0FDA3E0FEA3E0FFD0
:01311F00228D
:022ADF008F085E
:102AE100E4F50978127C067D017BFF7A3A794FFE85
:102AF1007F181218DE90062A121AF00000000090CA
:102B0100062E121AF000000000900632121AF00090
:102B1100000000E4F509AF08123057EE4403FEE46B
:102B2100FFEE54FCFEE50925E025E02412F582E4E0
:102B31003406F583121AE4123B3C0509E509D394E6
:102B41000540D3900612E0FCA3E0FDA3E0FEA3E064
:102B5100FF90062A121AE4900612E0FCA3E0FDA3FE
:102B6100E0FEA3E0FF90062E121AE4900612E0FCAC
:102B7100A3E0FDA3E0FEA3E0FF900632121AE47584
:102B81000901E50925E025E02412F582E43406F582
:102B910083E0FCA3E0FDA3E0FEA3E0FF90062EE0AE
:102BA100F8A3E0F9A3E0FAA3E0FBC3121A8D5020C9
:102BB100E50925E025E02412F582E43406F583E0F9
:102BC100FCA3E0FDA3E0FEA3E0FF90062E121AE4B1
:102BD100E50925E025E02412F582E43406F583E0D9
:102BE100FCA3E0FDA3E0FEA3E0FF900632E0F8A322
:102BF100E0F9A3E0FAA3E0FBD3121A8D4020E50926
:102C010025E025E02412F582E43406F583E0FCA3F7
:102C1100E0FDA3E0FEA3E0FF900632121AE4E5090D
:102C210025E025E02412F582E43406F583E0FCA3D7
:102C3100E0FDA3E0FEA3E0FF90062AE0F8A3E0F99F
:102C4100A3E0FAA3E0FBEF2BFFEE3AFEED39FDEC3A
:102C510038FC90062A121AE40509E50964066003A6
:102C6100022B8390062EE0F8A3E0F9A3E0FAA3E09B
:102C7100FB90062AE0FCA3E0FDA3E0FEA3E0C39BDA
:102C8100FFEE9AFEED99FDEC98FC900632E0F8A378
:102C9100E0F9A3E0FAA3E0FBC3EF9BFFEE9AFEEDA0
:0E2CA10099FDEC98FCE47B04FAF9F81219EDA9
:012CAF002202
:103979001230578F178E168D158C14E47BE87A0355
:10398900F9F81219ED8F178E168D158C14E412178C
:023999004F22BB
:100046003A200020004348313A000000000000003A
:100056000000002F000000000700070000147F14B6
:100066007F1400242A7F2A120062640813230036B4
:100076004955225000000503000000001C224100E3
:10008600000041221C000014083E08140008083E27
:100096000808000000A06000000808080808000022
:1000A60060600000002010080402003E5149453EF1
:1000B6000000427F4000004261514946002141450F
:1000C6004B31001814127F10002745454539003C76
:1000D6004A49493000017109050300364949493644
:1000E60000064949291E0000363600000000563633
:1000F6000000000814224100001414141414000017
:100106004122140800020151090600324959513EA4
:10011600007C1211127C007F49494936003E41415C
:100126004122007F4141221C007F49494941007F0D
:1001360009090901003E4149497A007F0808087FFC
:100146000000417F4100002040413F01007F08142C
:100156002241007F40404040007F020C027F007F2A
:100166000408107F003E4141413E007F090909060F
:10017600003E4151215E007F091929460046494942
:1001860049310001017F0101003F4040403F001F0F
:100196002040201F003F4038403F0063140814638E
:1001A60000070870080700615149454300007F4178
:1001B600410000552A552A55000041417F000004A0
:1001C60002010204004040404040000001020400D9
:1001D600002054545478007F48444438003844443E
:1001E600442000384444487F0038545454180008CA
:1001F6007E0901020018A4A4A47C007F08040478E8
:100206000000447D4000004080847D00007F10286F
:1002160044000000417F4000007C04180478007C04
:100226000804047800384444443800FC2424241884
:100236000018242418FC007C0804040800485454C0
:10024600542000043F444020003C4040207C001CD9
:100256002040201C003C4030403C004428102844EC
:10026600001CA0A0A07C004464544C441414141434
:100276001414000000000000000000000000000050
:100286000000000000F8000000000000003330000D
:10029600000000100C06100C060000000000000014
:1002A600000040C07840C0784000043F04043F048A
:1002B6000400007088FC08300000001820FF211E92
:1002C6000000F008F000E018000000211C031E21C9
:1002D6001E0000F00888700000001E212324192744
:1002E600211010160E0000000000000000000000A3
:1002F6000000000000E018040200000000071820BB
:10030600400000020418E00000000040201807002A
:100316000000404080F0804040000202010F0102D0
:100326000200000000F0000000000101011F0101B1
:100336000100000000000000000080B07000000016
:1003460000000000000000000000000101010101A2
:100356000101000000000000000000303000000035
:10036600000000000000806018040060180601000C
:10037600000000E010080810E000000F1020201018
:100386000F00001010F8000000000020203F202081
:100396000000007008080888700000302824222118
:1003A60030000030088888483000001820202011CE
:1003B6000E000000C02010F8000000070424243FAF
:1003C600240000F808888808080000192120201158
:1003D6000E0000E0108888180000000F1120201180
:1003E6000E0000380808C83808000000003F00006A
:1003F60000000070880808887000001C2221212255
:100406001C0000E010080810E00000003122221154
:100416000F00000000C0C0000000000000303000E7
:100426000000000000800000000000008060000066
:10043600000000008040201008000001020408109F
:1004460020004040404040404000040404040404AE
:10045600040000081020408000000020100804025C
:100466000100007048080808F0000000003036015E
:100476000000C030C828E810E0000718272423141D
:100486000B000000C038E0000000203C23020227D9
:10049600382008F8888888700000203F2020201126
:1004A6000E00C03008080808380007182020201061
:1004B600080008F808080810E000203F2020201057
:1004C6000F0008F88888E8081000203F2020232025
:1004D600180008F88888E8081000203F200003006C
:1004E6000000C03008080838000007182020221E27
:1004F600020008F808000008F808203F2101012141
:100506003F20000808F8080800000020203F2020AF
:10051600000000000808F8080800C08080807F00FE
:10052600000008F888C028180800203F2001263857
:10053600200008F8080000000000203F20202020AE
:10054600300008F8F800F8F80800203F003F003FA8
:10055600200008F830C00008F808203F20000718DF
:100566003F00E01008080810E0000F1020202010BF
:100576000F0008F808080808F000203F21010101D3
:100586000000E01008080810E0000F182424385076
:100596004F0008F8888888887000203F2000030CE8
:1005A60030200070880808083800003820212122F1
:1005B6001C00180808F8080818000000203F200052
:1005C600000008F808000008F808001F2020202076
:1005D6001F000878880000C83808000007380E0198
:1005E6000000F80800F80008F800033C0700073C84
:1005F6000300081868808068180820302C03032C34
:1006060030200838C800C83808000000203F200005
:10061600000010080808C8380800203826212020C5
:100626001800000000FE020202000000007F4040A9
:100636004000000C30C00000000000000001063839
:10064600C00000020202FE000000004040407F00A1
:100656000000000004020202040000000000000086
:100666000000000000000000000080808080808084
:10067600808000020204000000000000000000006C
:1006860000000000808080800000001924222222C1
:100696003F2008F8008080000000003F1120201154
:1006A6000E000000008080800000000E1120202037
:1006B6001100000000808088F800000E1120201034
:1006C6003F200000808080800000001F222222221E
:1006D6001300008080F0888888180020203F2020A2
:1006E60000000000808080808000006B94949493CA
:1006F600600008F8008080800000203F2100002074
:100706003F2000809898000000000020203F202015
:100716000000000000809898000000C08080807F64
:10072600000008F8000080808000203F24022D3061
:100736002000000808F8000000000020203F2020CC
:1007460000008080808080808000203F20003F2045
:10075600003F8080008080800000203F2100002034
:100766003F200000808080800000001F2020202085
:100776001F00808000808000000080FFA1202011E3
:100786000E000000008080808000000E112020A056
:10079600FF80808080008080800020203F21200014
:1007A60001000000808080808000003324242424FF
:1007B6001900008080E0808000000000001F2020DB
:1007C60000008080000000808000001F2020201094
:1007D6003F20808080000080808000010E30080667
:1007E600010080800080008080800F300C030C3078
:1007F6000F0000808000808080000020312E0E31A6
:100806002000808080000080808080818E701806A5
:10081600010000808080808080000021302C222111
:10082600300000000000807C020200000000003F53
:10083600404000000000FF00000000000000FF0034
:1008460000000002027C800000000040403F0000E3
:10085600000000060101020204040000000000007E
:1008660000002030AC633000FC848484FE828382E6
:1008760080000000000000000000000000000000F2
:100886000000226722121200FF402000010E3040B5
:10089600F80000000000000000000000000000005A
:1008A600000002E222223E8080FF80A0908886809F
:1008B60080000000000000000000000000000000B2
:1008C6000000004382423E0000FF4021060810203F
:1008D60040000000000000000000000000000000D2
:1008E6000000404042CC0040404040FF4040404075
:1008F60040000000000000000000000000000000B2
:1009060000000000007F2010000000FF0000000033
:1009160000000000000000000000000000000000D1
:10092600000090523410FF10345280708F0808F87F
:1009360008000000000000000000000000000000A9
:100946000000829A566322528E008040330C334058
:100956008000000000000000000000000000000011
:10096600000040422410FF00844444447F44444431
:10097600040000000000000000000000000000006D
:100986000000222212120AFE42270A1222324A428C
:10099600420000000000000000000000000000000F
:1009A6000000001715D55557557D555755D51517C0
:1009B6000000000000000000000000000000000031
:1009C60000004040407F555555555555557F404090
:1009D60040000000000000000000000000000000D1
:1009E60000001010D0FF90100202FE0202625AC6EA
:1009F60000000000000000000000000000000000F1
:100A06000000040300FF0043308F80432C102C436A
:100A16008000000000000000000000000000000050
:100A260000001010D0FF901000FC24E4242223E2E2
:100A360000000000000000000000000000000000B0
:100A46000000040300FF0083601F80412618264132
:100A56008000000000000000000000000000000010
:100A66000000908887FC84848002F212121212F22F
:100A7600020000000000000000000000000000006E
:100A86000000806018070830004045594141514D2B
:100A96004000000000000000000000000000000010
:100AA6000000003E22E2223E0010885724548C00AB
:100AB6000000000000000000000000000000000030
:100AC6000000407E403F22220001FE424242FE01DB
:100AD600010000000000000000000000000000000F
:100AE60000001010D0FF9010804828090E082848F2
:100AF6008800000000000000000000000000000068
:100B06000000040300FF00018080432C102C43806A
:100B1600800000000000000000000000000000004F
:100B2600000000020CE04020F84F4849FE484848C3
:100B360008000000000000000000000000000000A7
:100B4600000004047F000000FF2222223F2222220E
:100B5600200000000000000000000000000000006F
:100B66000000106002CC8040201E0202023E40407F
:100B7600400000000000000000000000000000002F
:100B8600000004047E018080834D512151498780F5
:100B960080000000000000000000000000000000CF
:100BA6000000404042CC000444645C47F4444444A2
:100BB600040000000000000000000000000000002B
:100BC60000000040201F2044444444447F444444E1
:100BD60044000000000000000000000000000000CB
:100BE6000000101010FF1050445465C6446454446D
:100BF60040000000000000000000000000000000AF
:100C060000000444827F0182824A562322524E8289
:100C160002000000000000000000000000000000CC
:100C260000001010F01F10F000808282E2928A8687
:100C3600800000000000000000000000000000002E
:100C46000000402215081661000040807F00000069
:100C5600000000000000000000000000000000008E
:100C660000000000007F494949494949497F000081
:100C7600000000000000000000000000000000006E
:100C860000008141211D214181FF8989898989814E
:100C960081000000000000000000000000000000CD
:100CA600000000028282422212FA06222242428278
:100CB600000000000000000000000000000000002E
:100CC6000000010100FC44444445444444FC000047
:100CD600010000000000000000000000000000000D
:100CE600000000E0F81C040602020206041CF8E0FC
:100CF60000000000000000000000000000000000EE
:100D0600000000030F1C103020202030101C0F03A1
:100D160000000000000000000000000000000000CD
:100D2600000000E0F8FCFCFEFEFEFEFEFCFCF8E027
:100D360000000000000000000000000000000000AD
:100D4600000000030F1F1F3F3F3F3F3F1F1F0F03C2
:100D5600000000000000000000000000000000008D
:100D6600000000000000000000000000000000007D
:100D7600000000000000000000000000000000006D
:100D8600000000000000000000000000000000005D
:100D9600000000000000000000000000000000004D
:100DA60000000000007F494949494949497F000040
:100DB600000000000000000000000000000000002D
:100DC60000008141211D214181FF8989898989810D
:100DD600810000000000000000000000000000008C
:100DE600000000028282422212FA06222242428237
:100DF60000000000000000000000000000000000ED
:100E06000000010100FC44444445444444FC000005
:100E160001000000000000000000000000000000CB
:100E26000000008060F807003E2222E222223E00F7
:100E360000000000000000000000000000000000AC
:100E46000000010000FF2011090503FF0305091139
:100E5600200000000000000000000000000000006C
:100E66000000040484E41C0724242424A464240429
:100E76000400000000000000000000000000000068
:100E86000000020100FF00020242827F020202020B
:100E9600020000000000000000000000000000004A
:100EA60000001010FF109000FE929292F292929E15
:100EB60080000000000000000000000000000000AC
:100EC600000042827F0180601F00FC44474444FCCE
:100ED600000000000000000000000000000000000C
:100EE6000000FFFFFF80B6B6B6B6B6B6B680FFFF07
:100EF600FFFF0000000000000000000000000000EE
:100F060000007EBEDEE2DEBE7E0076767676767EF9
:100F16007EFF00000000000000000000000000004E
:100F26000000FFFD7D7DBDDDED05F9DDDDBDBD7D8F
:100F3600FFFF0000000000000000000000000000AD
:100F46000000FEFEFF03BBBBBBBABBBBBB03FFFF80
:100F5600FEFF00000000000000000000000000008E
:020F6600000089
:093B5A00D2C5D2C4C2C4C2C52206
:07000300D2C5C2C4D2C42221
:0B3AF4001238CA123AFFAF041238CAA1
:053AFF00D2C5C2C52282
:0738C300AC07123B5A7F78AD
:1038CA00C2C5E4FEAD07530580BD8004D2C48002A0
:0E38DA00C2C4EF25E0FFD2C5C2C50EBE08E68F
:0138E80022BD
:0E3B13001238C3123AFFE4FF123AF402000324
:0E3B21001238C3123AFF7F40123AF40200033A
:10381E00E924B0FFE433FEE4FDFC123839E4FDFC8C
:0B382E00FFFE1238397F10E4FDFCFEA5
:10383900AB07AA06ED4C6003023B21AF03123B1311
:01384900225C
:023956008F3AA6
:10395800E4F912381EE4F53BAF3A7E007D017C00A5
:10396800123839053BE53BC3948040EC09B908E2BD
:01397800222C
:10384A00A907ED24B0FFE433FEE4FDFC123839E9A0
:10385A0054F0C4540F7E004410FFE4FDFC123839C2
:0C386A00E9540FFF7E00E4FDFC02383939
:103A96007F8D123835E4FDFC7F14FE123839E4FDC3
:073AA600FC7FAFFE0238397E
:103AE300E4FDFC7F8D12382FE4FDFC7FAEFE02382F
:013AF3003999
:1039DD00E4F912381EE4F5087D017C00E4FFFE12C7
:0F39ED0038390508E508C3948040ED09B908E3AF
:0139FC0022A8
:1039BC00E4F912381EE4F53D7D017C007F017E00A8
:1039CC00123839053DE53DC3948040EC09B908E255
:0139DC0022C8
:043120008F0F8D1070
:10312400E4F513F9EB24E0F513E50FD3947F40079E
:10313400E4F50F05100510E51264107069AD10AFC9
:103144000F12384AE4F975F010E513A429F582E466
:1031540035F0F583E5822478F582E5833402F5833E
:10316400E493FF7E007D017C0012383909B908D64A
:10317400E51004FDAF0F12384AE4F975F010E513B9
:10318400A429F582E435F0F583E5822480F582E50F
:10319400833402F583E493FF7E007D017C001238C2
:1031A4003909B908D622AD10AF0F12384AE4F975BF
:1031B400F006E513A42450F582E5F03400F583E528
:1031C4008229F582E43583F583E493FF7E007D0153
:0931D4007C0012383909B906D655
:0131DD0022CF
:043A67008F3EA905E0
:103A6B007F017E00AD0119ED6009AD3E7C0012199E
:033A7B004A80F18D
:013A7E002225
:0834AD008F2E8D2F8A308B3128
:1034B500E4F536F534E534C395325065C3E5329508
:1034C5003414FD7F0A123A67AC30AD31CFCDCFCE83
:1034D500CCCE12195C7C007D0A12195C8D35E5365F
:1034E5007023E53214FFE534C39F5019E53570129A
:1034F500E533C3138534F0A4252EFF8533127B20D5
:103505008016753601E533C3138534F0A4252EFFE7
:10351500E5352430FB853312AD2F1231200534807B
:013525009411
:013526002282
:0A364E008F088D098B0A8A0B890C86
:10365800E4F50EAB0AAA0BA90C850E82758300123D
:10366800191DFB6020850D12AD09AF0812312074B9
:10367800082508F508D394784007E4F508050905F6
:0536880009050E80CED3
:01368D00221A
:063527008F088D098B0ADC
:10352D00E4F50B12384AE4F975F040E50AA4246875
:10353D00F582E5F03408F583E58229F582E43583DB
:10354D00F583E493FF7E007D017C00123839050B75
:10355D0009B910D4E50904FDAF0812384AE4F9752C
:10356D00F040E50AA42488F582E5F03408F583E5FA
:10357D008229F582E43583F583E493FF7E007D0196
:0B358D007C00123839050B09B910D47E
:013598002210
:043599008F238B25CC
:10359D00E4F52AF52BE5265407700BE526131313D6
:1035AD00541FF52D800AE526131313541F04F52D12
:1035BD008D2DE52DC39526503BAD2DAF2312384AE9
:1035CD0085232CE52CC395255026AB27AA28A929A0
:1035DD00052BE52BAE2A7002052A14F5828E831277
:1035ED00191DFF7E007D017C00123839052C80D31A
:0435FD00052D80BE5A
:0136010022A6
:102EAD00E4FDFC7FAEFE123828E4FDFC7F40FE12EF
:102EBD003839E4FDFC7FB0FE123839E4FDFC7F812A
:102ECD00FE123839E4FDFC7FFFFE123839E4FDFCBB
:102EDD007FA1FE123839E4FDFC7FA6FE123839E4DD
:102EED00FDFC7FA8FE123839E4FDFC7F3FFE123851
:102EFD0039E4FDFC7FC8FE123839E4FDFC7FD3FEBA
:102F0D00123839E4FDFCFFFE123839E4FDFC7FD5A3
:102F1D00FE123839E4FDFC7F80FE123839E4FDFCE9
:102F2D007FD8FE123839E4FDFC7F05FE123839E4F6
:102F3D00FDFC7FD9FE123839E4FDFC7FF1FE12381D
:102F4D0039E4FDFC7FDAFE123839E4FDFC7F12FE18
:102F5D00123839E4FDFC7FDBFE123839E4FDFC7FCD
:102F6D0030FE123839E4FDFC7F8DFE123839E4FD58
:102F7D00FC7F14FE123839E4FDFC7FAFFE023839B8
:102DB300E4FBFDFF1235277B01E4FD7F101235276D
:102DC3007B02E4FD7F201235277B03E4FD7F301275
:102DD30035277B04E4FD7F401235277B05E4FD7F27
:102DE300501235277B0A7D02E4FF1235277B0B7DCA
:102DF300027F101235277BFF7A007946750D107D0F
:102E0300027F2012364E7BFF7A007949750D107DC3
:102E1300027F4812364E7B017D027F501235277B9D
:102E2300FF7A007949750D107D027F6012364E7B63
:102E3300FF7A007949750D107D027F6812364E7B4B
:102E4300027D04E4FF1235277B037D047F101235D6
:102E5300277BFF7A007946750D107D047F2012369B
:102E63004E7BFF7A007949750D107D047F48123639
:102E73004E7B017D047F501235277BFF7A00794911
:102E8300750D107D047F6012364E7BFF7A00794901
:102E9300750D107D047F6812364E7BFF7A00794BE7
:0A2EA300750D107D06E4FF02364EA7
:1015A900EC4D6011E8497017ED33EC3304600DE43C
:1015B900FCFFFEFD22E933E8330470F80217F91243
:1015C90017C458046009E4CC248150062850090244
:1015D9001803284003021800C0E0EB4A7044B980A0
:1015E90006D0E0FB0217EFEF4E701CBD8008EBFF41
:1015F900EAFEE9FD80EBE98DF0A4FEE5F002169222
:10160900E9CDF9EAFEEBFFEF89F0A4FCE5F0CE891C
:10161900F0A42EFFE435F0CD89F0A42DFEE435F0D9
:101629008067EF4E7005BD80D780C3EF8BF0A4AC07
:10163900F0EE8BF0A42CFCE435F0F8EF8AF0A42C42
:10164900E5F038FCE433CB8DF0A42CFCE5F03BF855
:10165900EE8AF0A42CFCE5F038F8E433CF89F0A445
:101669002CFCE5F038CF3400CE89F0A42FFFE5F04B
:101679003EFEE433C98DF0A42EFEE5F039CD8AF0A3
:10168900A42FFFE5F03EFEE43DFD33D0E0FB50071B
:101699000BBB000F021803EC2CFCEF33FFEE33FEFB
:0616A900ED33FD0217DB2A
:1016AF00021803EC5D046005E8590470030217F992
:1016BF001217C4580460F6EC4860F2EC7004FDFE9B
:1016CF00FF22C860DB2481C85009C398600250060E
:1016DF000218009850CAF582E9294B4A7005AB826F
:1016EF000217EF75F0007C1A7880C3EF9BEE9AED2E
:1016FF0099400DC3EF9BFFEE9AFEED99FDE842F086
:10170F00DC23ACF0D0E0FFD0E0FED0E0FDAB8220D8
:10171F00E7101BEB60BAEC2CFCEF33FFEE33FEED62
:10172F0033FD0217DBE803F830E705C0F075F00072
:10173F00EF2FFFEE33FEED33FD40B830E7C280AA46
:10174F0075F020800E75F010800575F0087D007E15
:10175F00007F003392D530D503121A7FEC3340103F
:10176F00EF33FFEE33FEED33FDEC33FCD5F0ED221E
:0E177F00E5F0247EA2D513CC92E7CDCEFF225A
:10178D00EDD2E7CD33EC3392D524814006E4FFFE54
:10179D00FDFC22FCE4CFCECDCC24E0501174FF80B3
:1017AD00EDC3CC13CCCD13CDCE13CECF13CF047050
:0717BD00F030D5DE021A7FB7
:1017C400E9D2E7C933E833F892D5EDD2E7CD33EC6B
:0717D40033FC5002B2D522E4
:1017DB00EC30E7100FBF000C0EBE00080DBD00046F
:1017EB000BEB6014A2D5EB13FCED92E7FD2274FF1B
:1017FB00FCFDFEFF22E480F8A2D574FF13FC7D8074
:03180B00E480EF87
:0300000002339830
:0C339800787FE4F6D8FD75813E0233DF3B
:10180E00E709F608DFFA8046E709F208DFFA803EBC
:10181E0088828C83E709F0A3DFFA8032E309F608A9
:10182E00DFFA8078E309F208DFFA807088828C8311
:10183E00E309F0A3DFFA806489828A83E0A3F608C5
:10184E00DFFA805889828A83E0A3F208DFFA804C9F
:10185E0080D280FA80C680D4806980F28033801076
:10186E0080A680EA809A80A880DA80E280CA8033DF
:10187E0089828A83ECFAE493A3C8C582C8CCC58357
:10188E00CCF0A3C8C582C8CCC583CCDFE9DEE78027
:10189E000D89828A83E493A3F608DFF9ECFAA9F0A6
:1018AE00EDFB2289828A83ECFAE0A3C8C582C8CCFC
:1018BE00C583CCF0A3C8C582C8CCC583CCDFEADE15
:1018CE00E880DB89828A83E493A3F208DFF980CC77
:1018DE0088F0EF60010E4E60C388F0ED2402B40470
:1018EE000050B9F582EB2402B4040050AF23234517
:0618FE00822390185E73C6
:10190400BB010689828A83E0225002E722BBFE02E1
:09191400E32289828A83E4932214
:10191D00BB010CE58229F582E5833AF583E022507F
:10192D0006E92582F8E622BBFE06E92582F8E222C9
:0D193D00E58229F582E5833AF583E49322E3
:10194A00EF8DF0A4A8F0CF8CF0A428CE8DF0A42EB1
:02195A00FE226B
:10195C00BC000BBE0029EF8DF084FFADF022E4CC6F
:10196C00F875F008EF2FFFEE33FEEC33FCEE9DEC38
:10197C00984005FCEE9DFE0FD5F0E9E4CEFD22ED7E
:10198C00F8F5F0EE8420D21CFEADF075F008EF2FC8
:10199C00FFED33FD4007985006D5F0F222C398FDB9
:0519AC000FD5F0EA2256
:1019B10075F008758200EF2FFFEE33FECD33CDCCED
:1019C10033CCC58233C5829BED9AEC99E582984070
:1019D1000CF582EE9BFEED9AFDEC99FC0FD5F0D64D
:1019E100E4CEFBE4CDFAE4CCF9A88222B800C1B977
:1019F1000059BA002DEC8BF084CFCECDFCE5F0CBB5
:101A0100F97818EF2FFFEE33FEED33FDEC33FCEBED
:101A110033FB10D703994004EB99FB0FD8E5E4F9A8
:101A2100FA227818EF2FFFEE33FEED33FDEC33FC95
:101A3100C933C910D7059BE99A4007EC9BFCE99A89
:101A4100F90FD8E0E4C9FAE4CCFB2275F010EF2FCE
:101A5100FFEE33FEED33FDCC33CCC833C810D707CE
:101A61009BEC9AE899400AED9BFDEC9AFCE899F809
:0E1A71000FD5F0DAE4CDFBE4CCFAE4C8F9229C
:0E1A7F00C3E49FFFE49EFEE49DFDE49CFC2278
:101A8D00EB9FF5F0EA9E42F0E99D42F0E89C45F0AF
:011A9D002226
:101A9E00E8600FECC313FCED13FDEE13FEEF13FF26
:031AAE00D8F1224A
:101AB100E8600FEFC333FFEE33FEED33FDEC33FC93
:031AC100D8F12237
:101AC400E493FC740193FD740293FE740393FF2268
:101AD400E493F8740193F9740293FA740393FB2268
:0C1AE400ECF0A3EDF0A3EEF0A3EFF02275
:101AF000A8828583F0D083D082121B07121B0712A5
:101B00001B07121B07E473E493A3C583C5F0C583C9
:101B1000C8C582C8F0A3C583C5F0C583C8C582C83F
:011B200022A2
:1033A400021B21E493A3F8E493A34003F68001F203
:1033B40008DFF48029E493A3F85407240CC8C3332A
:1033C400C4540F4420C8834004F456800146F6DFF9
:1033D400E4800B0102040810204080900F68E47E12
:1033E400019360BCA3FF543F30E509541FFEE493EE
:1033F400A360010ECF54C025E060A840B8E493A3B5
:10340400FAE493A3F8E493A3C8C582C8CAC583CADF
:10341400F0A3C8C582C8CAC583CADFE9DEE780BE97
:0115A8000042
:00000001FF
